{
  "contractName": "GmToken",
  "abi": [
    {
      "inputs": [
        {
          "internalType": "string",
          "name": "name",
          "type": "string"
        },
        {
          "internalType": "string",
          "name": "symbol",
          "type": "string"
        },
        {
          "internalType": "address",
          "name": "_signer",
          "type": "address"
        }
      ],
      "stateMutability": "nonpayable",
      "type": "constructor"
    },
    {
      "anonymous": false,
      "inputs": [
        {
          "indexed": true,
          "internalType": "address",
          "name": "owner",
          "type": "address"
        },
        {
          "indexed": true,
          "internalType": "address",
          "name": "spender",
          "type": "address"
        },
        {
          "indexed": false,
          "internalType": "uint256",
          "name": "value",
          "type": "uint256"
        }
      ],
      "name": "Approval",
      "type": "event"
    },
    {
      "anonymous": false,
      "inputs": [
        {
          "indexed": true,
          "internalType": "address",
          "name": "from",
          "type": "address"
        },
        {
          "indexed": true,
          "internalType": "address",
          "name": "to",
          "type": "address"
        },
        {
          "indexed": false,
          "internalType": "uint256",
          "name": "value",
          "type": "uint256"
        }
      ],
      "name": "Transfer",
      "type": "event"
    },
    {
      "inputs": [],
      "name": "ADDR_DEV",
      "outputs": [
        {
          "internalType": "address",
          "name": "",
          "type": "address"
        }
      ],
      "stateMutability": "view",
      "type": "function",
      "constant": true
    },
    {
      "inputs": [],
      "name": "AMOUNT_AIRDROP",
      "outputs": [
        {
          "internalType": "uint256",
          "name": "",
          "type": "uint256"
        }
      ],
      "stateMutability": "view",
      "type": "function",
      "constant": true
    },
    {
      "inputs": [],
      "name": "AMOUNT_DEV",
      "outputs": [
        {
          "internalType": "uint256",
          "name": "",
          "type": "uint256"
        }
      ],
      "stateMutability": "view",
      "type": "function",
      "constant": true
    },
    {
      "inputs": [],
      "name": "MAX_SUPPLY",
      "outputs": [
        {
          "internalType": "uint256",
          "name": "",
          "type": "uint256"
        }
      ],
      "stateMutability": "view",
      "type": "function",
      "constant": true
    },
    {
      "inputs": [
        {
          "internalType": "address",
          "name": "owner",
          "type": "address"
        },
        {
          "internalType": "address",
          "name": "spender",
          "type": "address"
        }
      ],
      "name": "allowance",
      "outputs": [
        {
          "internalType": "uint256",
          "name": "",
          "type": "uint256"
        }
      ],
      "stateMutability": "view",
      "type": "function",
      "constant": true
    },
    {
      "inputs": [
        {
          "internalType": "address",
          "name": "spender",
          "type": "address"
        },
        {
          "internalType": "uint256",
          "name": "amount",
          "type": "uint256"
        }
      ],
      "name": "approve",
      "outputs": [
        {
          "internalType": "bool",
          "name": "",
          "type": "bool"
        }
      ],
      "stateMutability": "nonpayable",
      "type": "function"
    },
    {
      "inputs": [
        {
          "internalType": "address",
          "name": "account",
          "type": "address"
        }
      ],
      "name": "balanceOf",
      "outputs": [
        {
          "internalType": "uint256",
          "name": "",
          "type": "uint256"
        }
      ],
      "stateMutability": "view",
      "type": "function",
      "constant": true
    },
    {
      "inputs": [],
      "name": "cSigner",
      "outputs": [
        {
          "internalType": "address",
          "name": "",
          "type": "address"
        }
      ],
      "stateMutability": "view",
      "type": "function",
      "constant": true
    },
    {
      "inputs": [],
      "name": "decimals",
      "outputs": [
        {
          "internalType": "uint8",
          "name": "",
          "type": "uint8"
        }
      ],
      "stateMutability": "view",
      "type": "function",
      "constant": true
    },
    {
      "inputs": [
        {
          "internalType": "address",
          "name": "spender",
          "type": "address"
        },
        {
          "internalType": "uint256",
          "name": "subtractedValue",
          "type": "uint256"
        }
      ],
      "name": "decreaseAllowance",
      "outputs": [
        {
          "internalType": "bool",
          "name": "",
          "type": "bool"
        }
      ],
      "stateMutability": "nonpayable",
      "type": "function"
    },
    {
      "inputs": [
        {
          "internalType": "address",
          "name": "spender",
          "type": "address"
        },
        {
          "internalType": "uint256",
          "name": "addedValue",
          "type": "uint256"
        }
      ],
      "name": "increaseAllowance",
      "outputs": [
        {
          "internalType": "bool",
          "name": "",
          "type": "bool"
        }
      ],
      "stateMutability": "nonpayable",
      "type": "function"
    },
    {
      "inputs": [
        {
          "internalType": "address",
          "name": "account",
          "type": "address"
        }
      ],
      "name": "minted",
      "outputs": [
        {
          "internalType": "uint256",
          "name": "",
          "type": "uint256"
        }
      ],
      "stateMutability": "view",
      "type": "function",
      "constant": true
    },
    {
      "inputs": [],
      "name": "name",
      "outputs": [
        {
          "internalType": "string",
          "name": "",
          "type": "string"
        }
      ],
      "stateMutability": "view",
      "type": "function",
      "constant": true
    },
    {
      "inputs": [],
      "name": "symbol",
      "outputs": [
        {
          "internalType": "string",
          "name": "",
          "type": "string"
        }
      ],
      "stateMutability": "view",
      "type": "function",
      "constant": true
    },
    {
      "inputs": [],
      "name": "totalSupply",
      "outputs": [
        {
          "internalType": "uint256",
          "name": "",
          "type": "uint256"
        }
      ],
      "stateMutability": "view",
      "type": "function",
      "constant": true
    },
    {
      "inputs": [
        {
          "internalType": "address",
          "name": "recipient",
          "type": "address"
        },
        {
          "internalType": "uint256",
          "name": "amount",
          "type": "uint256"
        }
      ],
      "name": "transfer",
      "outputs": [
        {
          "internalType": "bool",
          "name": "",
          "type": "bool"
        }
      ],
      "stateMutability": "nonpayable",
      "type": "function"
    },
    {
      "inputs": [
        {
          "internalType": "address",
          "name": "sender",
          "type": "address"
        },
        {
          "internalType": "address",
          "name": "recipient",
          "type": "address"
        },
        {
          "internalType": "uint256",
          "name": "amount",
          "type": "uint256"
        }
      ],
      "name": "transferFrom",
      "outputs": [
        {
          "internalType": "bool",
          "name": "",
          "type": "bool"
        }
      ],
      "stateMutability": "nonpayable",
      "type": "function"
    },
    {
      "inputs": [
        {
          "internalType": "uint256",
          "name": "_amount",
          "type": "uint256"
        },
        {
          "internalType": "bytes",
          "name": "_sig",
          "type": "bytes"
        }
      ],
      "name": "claimTokens",
      "outputs": [],
      "stateMutability": "nonpayable",
      "type": "function"
    },
    {
      "inputs": [],
      "name": "tokensLeft",
      "outputs": [
        {
          "internalType": "uint256",
          "name": "",
          "type": "uint256"
        }
      ],
      "stateMutability": "view",
      "type": "function",
      "constant": true
    }
  ],
  "bytecode": "0x6101806040523480156200001257600080fd5b50604051620037c9380380620037c9833981810160405281019062000038919062000755565b826040518060400160405280600181526020017f31000000000000000000000000000000000000000000000000000000000000008152508484816003908051906020019062000089929190620004a3565b508060049080519060200190620000a2929190620004a3565b50505060008280519060200120905060008280519060200120905060007f8b73c3c69bb8fe3d512ecc4cf759cc79239f7b179b0ffacaa9a75d522b39400f90508260e081815250508161010081815250504660a081815250506200010e8184846200020f60201b60201c565b608081815250503073ffffffffffffffffffffffffffffffffffffffff1660c08173ffffffffffffffffffffffffffffffffffffffff168152505080610120818152505050505050506200019c30600a6301406f407effffffffffffffffffffffffffffffffffffffffffffffffffffffffffffff1662000190919062000857565b6200024b60201b60201c565b8073ffffffffffffffffffffffffffffffffffffffff166101608173ffffffffffffffffffffffffffffffffffffffff16815250508073ffffffffffffffffffffffffffffffffffffffff166101408173ffffffffffffffffffffffffffffffffffffffff168152505050505062000b12565b600083838346306040516020016200022c959493929190620008cc565b6040516020818303038152906040528051906020012090509392505050565b600073ffffffffffffffffffffffffffffffffffffffff168273ffffffffffffffffffffffffffffffffffffffff161415620002be576040517f08c379a0000000000000000000000000000000000000000000000000000000008152600401620002b5906200098a565b60405180910390fd5b620002d2600083836200049960201b60201c565b8060026000828254620002e69190620009ac565b92505081905550806000808473ffffffffffffffffffffffffffffffffffffffff1673ffffffffffffffffffffffffffffffffffffffff16815260200190815260200160002060000160018282829054906101000a90047effffffffffffffffffffffffffffffffffffffffffffffffffffffffffffff166200036a919062000a34565b92506101000a8154817effffffffffffffffffffffffffffffffffffffffffffffffffffffffffffff02191690837effffffffffffffffffffffffffffffffffffffffffffffffffffffffffffff16021790555060016000808473ffffffffffffffffffffffffffffffffffffffff1673ffffffffffffffffffffffffffffffffffffffff16815260200190815260200160002060000160006101000a81548160ff021916908360ff1602179055508173ffffffffffffffffffffffffffffffffffffffff16600073ffffffffffffffffffffffffffffffffffffffff167fddf252ad1be2c89b69c2b068fc378daa952ba7f163c4a11628f55a4df523b3ef8360405162000479919062000a90565b60405180910390a362000495600083836200049e60201b60201c565b5050565b505050565b505050565b828054620004b19062000adc565b90600052602060002090601f016020900481019282620004d5576000855562000521565b82601f10620004f057805160ff191683800117855562000521565b8280016001018555821562000521579182015b828111156200052057825182559160200191906001019062000503565b5b50905062000530919062000534565b5090565b5b808211156200054f57600081600090555060010162000535565b5090565b6000604051905090565b600080fd5b600080fd5b600080fd5b600080fd5b6000601f19601f8301169050919050565b7f4e487b7100000000000000000000000000000000000000000000000000000000600052604160045260246000fd5b620005bc8262000571565b810181811067ffffffffffffffff82111715620005de57620005dd62000582565b5b80604052505050565b6000620005f362000553565b9050620006018282620005b1565b919050565b600067ffffffffffffffff82111562000624576200062362000582565b5b6200062f8262000571565b9050602081019050919050565b60005b838110156200065c5780820151818401526020810190506200063f565b838111156200066c576000848401525b50505050565b600062000689620006838462000606565b620005e7565b905082815260208101848484011115620006a857620006a76200056c565b5b620006b58482856200063c565b509392505050565b600082601f830112620006d557620006d462000567565b5b8151620006e784826020860162000672565b91505092915050565b600073ffffffffffffffffffffffffffffffffffffffff82169050919050565b60006200071d82620006f0565b9050919050565b6200072f8162000710565b81146200073b57600080fd5b50565b6000815190506200074f8162000724565b92915050565b6000806000606084860312156200077157620007706200055d565b5b600084015167ffffffffffffffff81111562000792576200079162000562565b5b620007a086828701620006bd565b935050602084015167ffffffffffffffff811115620007c457620007c362000562565b5b620007d286828701620006bd565b9250506040620007e5868287016200073e565b9150509250925092565b6000819050919050565b7f4e487b7100000000000000000000000000000000000000000000000000000000600052601260045260246000fd5b7f4e487b7100000000000000000000000000000000000000000000000000000000600052601160045260246000fd5b60006200086482620007ef565b91506200087183620007ef565b925082620008845762000883620007f9565b5b828204905092915050565b6000819050919050565b620008a4816200088f565b82525050565b620008b581620007ef565b82525050565b620008c68162000710565b82525050565b600060a082019050620008e3600083018862000899565b620008f2602083018762000899565b62000901604083018662000899565b620009106060830185620008aa565b6200091f6080830184620008bb565b9695505050505050565b600082825260208201905092915050565b7f45524332303a206d696e7420746f20746865207a65726f206164647265737300600082015250565b600062000972601f8362000929565b91506200097f826200093a565b602082019050919050565b60006020820190508181036000830152620009a58162000963565b9050919050565b6000620009b982620007ef565b9150620009c683620007ef565b9250827fffffffffffffffffffffffffffffffffffffffffffffffffffffffffffffffff03821115620009fe57620009fd62000828565b5b828201905092915050565b60007effffffffffffffffffffffffffffffffffffffffffffffffffffffffffffff82169050919050565b600062000a418262000a09565b915062000a4e8362000a09565b9250827effffffffffffffffffffffffffffffffffffffffffffffffffffffffffffff0382111562000a855762000a8462000828565b5b828201905092915050565b600060208201905062000aa76000830184620008aa565b92915050565b7f4e487b7100000000000000000000000000000000000000000000000000000000600052602260045260246000fd5b6000600282049050600182168062000af557607f821691505b6020821081141562000b0c5762000b0b62000aad565b5b50919050565b60805160a05160c05160e05161010051610120516101405161016051612c5c62000b6d600039600081816105a101526108d001526000610c510152600050506000505060005050600050506000505060005050612c5c6000f3fe608060405234801561001057600080fd5b50600436106101215760003560e01c806339509351116100ad578063a457c2d711610071578063a457c2d714610322578063a9059cbb14610352578063b31f8f9314610382578063dd62ed3e146103a0578063f88912a7146103d057610121565b806339509351146102685780635760cc5d1461029857806370a08231146102b657806380ef0160146102e657806395d89b411461030457610121565b80631e7269c5116100f45780631e7269c5146101ae57806323b872dd146101de57806323d04a101461020e578063313ce5671461022c57806332cb6b0c1461024a57610121565b806306fdde0314610126578063095ea7b31461014457806314d8bbf11461017457806318160ddd14610190575b600080fd5b61012e6103ee565b60405161013b9190611a31565b60405180910390f35b61015e60048036038101906101599190611afb565b610480565b60405161016b9190611b56565b60405180910390f35b61018e60048036038101906101899190611ca6565b61049e565b005b61019861065e565b6040516101a59190611d11565b60405180910390f35b6101c860048036038101906101c39190611d2c565b610668565b6040516101d59190611d11565b60405180910390f35b6101f860048036038101906101f39190611d59565b6106c3565b6040516102059190611b56565b60405180910390f35b6102166107bb565b6040516102239190611d11565b60405180910390f35b6102346107f0565b6040516102419190611dc8565b60405180910390f35b6102526107f9565b60405161025f9190611d11565b60405180910390f35b610282600480360381019061027d9190611afb565b610822565b60405161028f9190611b56565b60405180910390f35b6102a06108ce565b6040516102ad9190611df2565b60405180910390f35b6102d060048036038101906102cb9190611d2c565b6108f2565b6040516102dd9190611d11565b60405180910390f35b6102ee610989565b6040516102fb9190611d11565b60405180910390f35b61030c6109ee565b6040516103199190611a31565b60405180910390f35b61033c60048036038101906103379190611afb565b610a80565b6040516103499190611b56565b60405180910390f35b61036c60048036038101906103679190611afb565b610b6b565b6040516103799190611b56565b60405180910390f35b61038a610b89565b6040516103979190611d11565b60405180910390f35b6103ba60048036038101906103b59190611e0d565b610bc8565b6040516103c79190611d11565b60405180910390f35b6103d8610c4f565b6040516103e59190611df2565b60405180910390f35b6060600380546103fd90611e7c565b80601f016020809104026020016040519081016040528092919081815260200182805461042990611e7c565b80156104765780601f1061044b57610100808354040283529160200191610476565b820191906000526020600020905b81548152906001019060200180831161045957829003601f168201915b5050505050905090565b600061049461048d610c73565b8484610c7b565b6001905092915050565b6000826104a961065e565b6104b39190611edd565b90506301406f407effffffffffffffffffffffffffffffffffffffffffffffffffffffffffffff1681111561051d576040517f08c379a000000000000000000000000000000000000000000000000000000000815260040161051490611f7f565b60405180910390fd5b600061052833610668565b14610568576040517f08c379a000000000000000000000000000000000000000000000000000000000815260040161055f90611feb565b60405180910390fd5b600061059d610597338660405160200161058392919061200b565b604051602081830303815290604052610e46565b84610e81565b90507f000000000000000000000000000000000000000000000000000000000000000073ffffffffffffffffffffffffffffffffffffffff168173ffffffffffffffffffffffffffffffffffffffff161461062d576040517f08c379a000000000000000000000000000000000000000000000000000000000815260040161062490612080565b60405180910390fd5b610658336106396107f0565b60ff16600a61064891906121d3565b86610653919061221e565b610ea8565b50505050565b6000600254905090565b60008060008373ffffffffffffffffffffffffffffffffffffffff1673ffffffffffffffffffffffffffffffffffffffff16815260200190815260200160002060000160009054906101000a900460ff1660ff169050919050565b60006106d08484846110dd565b6000600160008673ffffffffffffffffffffffffffffffffffffffff1673ffffffffffffffffffffffffffffffffffffffff168152602001908152602001600020600061071b610c73565b73ffffffffffffffffffffffffffffffffffffffff1673ffffffffffffffffffffffffffffffffffffffff1681526020019081526020016000205490508281101561079b576040517f08c379a0000000000000000000000000000000000000000000000000000000008152600401610792906122ea565b60405180910390fd5b6107af856107a7610c73565b858403610c7b565b60019150509392505050565b600a6301406f407effffffffffffffffffffffffffffffffffffffffffffffffffffffffffffff166107ed9190612339565b81565b60006012905090565b6301406f407effffffffffffffffffffffffffffffffffffffffffffffffffffffffffffff1681565b60006108c461082f610c73565b84846001600061083d610c73565b73ffffffffffffffffffffffffffffffffffffffff1673ffffffffffffffffffffffffffffffffffffffff16815260200190815260200160002060008873ffffffffffffffffffffffffffffffffffffffff1673ffffffffffffffffffffffffffffffffffffffff168152602001908152602001600020546108bf9190611edd565b610c7b565b6001905092915050565b7f000000000000000000000000000000000000000000000000000000000000000081565b60008060008373ffffffffffffffffffffffffffffffffffffffff1673ffffffffffffffffffffffffffffffffffffffff16815260200190815260200160002060000160019054906101000a90047effffffffffffffffffffffffffffffffffffffffffffffffffffffffffffff167effffffffffffffffffffffffffffffffffffffffffffffffffffffffffffff169050919050565b600a6301406f407effffffffffffffffffffffffffffffffffffffffffffffffffffffffffffff166109bb9190612339565b6301406f407effffffffffffffffffffffffffffffffffffffffffffffffffffffffffffff166109eb919061236a565b81565b6060600480546109fd90611e7c565b80601f0160208091040260200160405190810160405280929190818152602001828054610a2990611e7c565b8015610a765780601f10610a4b57610100808354040283529160200191610a76565b820191906000526020600020905b815481529060010190602001808311610a5957829003601f168201915b5050505050905090565b60008060016000610a8f610c73565b73ffffffffffffffffffffffffffffffffffffffff1673ffffffffffffffffffffffffffffffffffffffff16815260200190815260200160002060008573ffffffffffffffffffffffffffffffffffffffff1673ffffffffffffffffffffffffffffffffffffffff16815260200190815260200160002054905082811015610b4c576040517f08c379a0000000000000000000000000000000000000000000000000000000008152600401610b4390612410565b60405180910390fd5b610b60610b57610c73565b85858403610c7b565b600191505092915050565b6000610b7f610b78610c73565b84846110dd565b6001905092915050565b6000610b9361065e565b6301406f407effffffffffffffffffffffffffffffffffffffffffffffffffffffffffffff16610bc3919061236a565b905090565b6000600160008473ffffffffffffffffffffffffffffffffffffffff1673ffffffffffffffffffffffffffffffffffffffff16815260200190815260200160002060008373ffffffffffffffffffffffffffffffffffffffff1673ffffffffffffffffffffffffffffffffffffffff16815260200190815260200160002054905092915050565b7f000000000000000000000000000000000000000000000000000000000000000081565b600033905090565b600073ffffffffffffffffffffffffffffffffffffffff168373ffffffffffffffffffffffffffffffffffffffff161415610ceb576040517f08c379a0000000000000000000000000000000000000000000000000000000008152600401610ce2906124a2565b60405180910390fd5b600073ffffffffffffffffffffffffffffffffffffffff168273ffffffffffffffffffffffffffffffffffffffff161415610d5b576040517f08c379a0000000000000000000000000000000000000000000000000000000008152600401610d5290612534565b60405180910390fd5b80600160008573ffffffffffffffffffffffffffffffffffffffff1673ffffffffffffffffffffffffffffffffffffffff16815260200190815260200160002060008473ffffffffffffffffffffffffffffffffffffffff1673ffffffffffffffffffffffffffffffffffffffff168152602001908152602001600020819055508173ffffffffffffffffffffffffffffffffffffffff168373ffffffffffffffffffffffffffffffffffffffff167f8c5be1e5ebec7d5bd14f71427d1e84f3dd0314c0f7b2291e5b200ac8c7c3b92583604051610e399190611d11565b60405180910390a3505050565b6000610e52825161147a565b82604051602001610e64929190612623565b604051602081830303815290604052805190602001209050919050565b6000806000610e9085856115db565b91509150610e9d8161165e565b819250505092915050565b600073ffffffffffffffffffffffffffffffffffffffff168273ffffffffffffffffffffffffffffffffffffffff161415610f18576040517f08c379a0000000000000000000000000000000000000000000000000000000008152600401610f0f9061269e565b60405180910390fd5b610f2460008383611833565b8060026000828254610f369190611edd565b92505081905550806000808473ffffffffffffffffffffffffffffffffffffffff1673ffffffffffffffffffffffffffffffffffffffff16815260200190815260200160002060000160018282829054906101000a90047effffffffffffffffffffffffffffffffffffffffffffffffffffffffffffff16610fb891906126e9565b92506101000a8154817effffffffffffffffffffffffffffffffffffffffffffffffffffffffffffff02191690837effffffffffffffffffffffffffffffffffffffffffffffffffffffffffffff16021790555060016000808473ffffffffffffffffffffffffffffffffffffffff1673ffffffffffffffffffffffffffffffffffffffff16815260200190815260200160002060000160006101000a81548160ff021916908360ff1602179055508173ffffffffffffffffffffffffffffffffffffffff16600073ffffffffffffffffffffffffffffffffffffffff167fddf252ad1be2c89b69c2b068fc378daa952ba7f163c4a11628f55a4df523b3ef836040516110c59190611d11565b60405180910390a36110d960008383611838565b5050565b600073ffffffffffffffffffffffffffffffffffffffff168373ffffffffffffffffffffffffffffffffffffffff16141561114d576040517f08c379a0000000000000000000000000000000000000000000000000000000008152600401611144906127b0565b60405180910390fd5b600073ffffffffffffffffffffffffffffffffffffffff168273ffffffffffffffffffffffffffffffffffffffff1614156111bd576040517f08c379a00000000000000000000000000000000000000000000000000000000081526004016111b490612842565b60405180910390fd5b6111c8838383611833565b60008060008573ffffffffffffffffffffffffffffffffffffffff1673ffffffffffffffffffffffffffffffffffffffff16815260200190815260200160002060000160019054906101000a90047effffffffffffffffffffffffffffffffffffffffffffffffffffffffffffff167effffffffffffffffffffffffffffffffffffffffffffffffffffffffffffff1690508181101561129d576040517f08c379a0000000000000000000000000000000000000000000000000000000008152600401611294906128d4565b60405180910390fd5b8181036000808673ffffffffffffffffffffffffffffffffffffffff1673ffffffffffffffffffffffffffffffffffffffff16815260200190815260200160002060000160016101000a8154817effffffffffffffffffffffffffffffffffffffffffffffffffffffffffffff02191690837effffffffffffffffffffffffffffffffffffffffffffffffffffffffffffff160217905550816000808573ffffffffffffffffffffffffffffffffffffffff1673ffffffffffffffffffffffffffffffffffffffff16815260200190815260200160002060000160018282829054906101000a90047effffffffffffffffffffffffffffffffffffffffffffffffffffffffffffff166113b091906126e9565b92506101000a8154817effffffffffffffffffffffffffffffffffffffffffffffffffffffffffffff02191690837effffffffffffffffffffffffffffffffffffffffffffffffffffffffffffff1602179055508273ffffffffffffffffffffffffffffffffffffffff168473ffffffffffffffffffffffffffffffffffffffff167fddf252ad1be2c89b69c2b068fc378daa952ba7f163c4a11628f55a4df523b3ef846040516114619190611d11565b60405180910390a3611474848484611838565b50505050565b606060008214156114c2576040518060400160405280600181526020017f300000000000000000000000000000000000000000000000000000000000000081525090506115d6565b600082905060005b600082146114f45780806114dd906128f4565b915050600a826114ed9190612339565b91506114ca565b60008167ffffffffffffffff8111156115105761150f611b7b565b5b6040519080825280601f01601f1916602001820160405280156115425781602001600182028036833780820191505090505b5090505b600085146115cf5760018261155b919061236a565b9150600a8561156a919061293d565b60306115769190611edd565b60f81b81838151811061158c5761158b61296e565b5b60200101907effffffffffffffffffffffffffffffffffffffffffffffffffffffffffffff1916908160001a905350600a856115c89190612339565b9450611546565b8093505050505b919050565b60008060418351141561161d5760008060006020860151925060408601519150606086015160001a90506116118782858561183d565b94509450505050611657565b60408351141561164e57600080602085015191506040850151905061164386838361194a565b935093505050611657565b60006002915091505b9250929050565b600060048111156116725761167161299d565b5b8160048111156116855761168461299d565b5b141561169057611830565b600160048111156116a4576116a361299d565b5b8160048111156116b7576116b661299d565b5b14156116f8576040517f08c379a00000000000000000000000000000000000000000000000000000000081526004016116ef90612a18565b60405180910390fd5b6002600481111561170c5761170b61299d565b5b81600481111561171f5761171e61299d565b5b1415611760576040517f08c379a000000000000000000000000000000000000000000000000000000000815260040161175790612a84565b60405180910390fd5b600360048111156117745761177361299d565b5b8160048111156117875761178661299d565b5b14156117c8576040517f08c379a00000000000000000000000000000000000000000000000000000000081526004016117bf90612b16565b60405180910390fd5b6004808111156117db576117da61299d565b5b8160048111156117ee576117ed61299d565b5b141561182f576040517f08c379a000000000000000000000000000000000000000000000000000000000815260040161182690612ba8565b60405180910390fd5b5b50565b505050565b505050565b6000807f7fffffffffffffffffffffffffffffff5d576e7357a4501ddfe92f46681b20a08360001c1115611878576000600391509150611941565b601b8560ff16141580156118905750601c8560ff1614155b156118a2576000600491509150611941565b6000600187878787604051600081526020016040526040516118c79493929190612be1565b6020604051602081039080840390855afa1580156118e9573d6000803e3d6000fd5b505050602060405103519050600073ffffffffffffffffffffffffffffffffffffffff168173ffffffffffffffffffffffffffffffffffffffff16141561193857600060019250925050611941565b80600092509250505b94509492505050565b6000806000807f7fffffffffffffffffffffffffffffffffffffffffffffffffffffffffffffff85169150601b8560ff1c01905061198a8782888561183d565b935093505050935093915050565b600081519050919050565b600082825260208201905092915050565b60005b838110156119d25780820151818401526020810190506119b7565b838111156119e1576000848401525b50505050565b6000601f19601f8301169050919050565b6000611a0382611998565b611a0d81856119a3565b9350611a1d8185602086016119b4565b611a26816119e7565b840191505092915050565b60006020820190508181036000830152611a4b81846119f8565b905092915050565b6000604051905090565b600080fd5b600080fd5b600073ffffffffffffffffffffffffffffffffffffffff82169050919050565b6000611a9282611a67565b9050919050565b611aa281611a87565b8114611aad57600080fd5b50565b600081359050611abf81611a99565b92915050565b6000819050919050565b611ad881611ac5565b8114611ae357600080fd5b50565b600081359050611af581611acf565b92915050565b60008060408385031215611b1257611b11611a5d565b5b6000611b2085828601611ab0565b9250506020611b3185828601611ae6565b9150509250929050565b60008115159050919050565b611b5081611b3b565b82525050565b6000602082019050611b6b6000830184611b47565b92915050565b600080fd5b600080fd5b7f4e487b7100000000000000000000000000000000000000000000000000000000600052604160045260246000fd5b611bb3826119e7565b810181811067ffffffffffffffff82111715611bd257611bd1611b7b565b5b80604052505050565b6000611be5611a53565b9050611bf18282611baa565b919050565b600067ffffffffffffffff821115611c1157611c10611b7b565b5b611c1a826119e7565b9050602081019050919050565b82818337600083830152505050565b6000611c49611c4484611bf6565b611bdb565b905082815260208101848484011115611c6557611c64611b76565b5b611c70848285611c27565b509392505050565b600082601f830112611c8d57611c8c611b71565b5b8135611c9d848260208601611c36565b91505092915050565b60008060408385031215611cbd57611cbc611a5d565b5b6000611ccb85828601611ae6565b925050602083013567ffffffffffffffff811115611cec57611ceb611a62565b5b611cf885828601611c78565b9150509250929050565b611d0b81611ac5565b82525050565b6000602082019050611d266000830184611d02565b92915050565b600060208284031215611d4257611d41611a5d565b5b6000611d5084828501611ab0565b91505092915050565b600080600060608486031215611d7257611d71611a5d565b5b6000611d8086828701611ab0565b9350506020611d9186828701611ab0565b9250506040611da286828701611ae6565b9150509250925092565b600060ff82169050919050565b611dc281611dac565b82525050565b6000602082019050611ddd6000830184611db9565b92915050565b611dec81611a87565b82525050565b6000602082019050611e076000830184611de3565b92915050565b60008060408385031215611e2457611e23611a5d565b5b6000611e3285828601611ab0565b9250506020611e4385828601611ab0565b9150509250929050565b7f4e487b7100000000000000000000000000000000000000000000000000000000600052602260045260246000fd5b60006002820490506001821680611e9457607f821691505b60208210811415611ea857611ea7611e4d565b5b50919050565b7f4e487b7100000000000000000000000000000000000000000000000000000000600052601160045260246000fd5b6000611ee882611ac5565b9150611ef383611ac5565b9250827fffffffffffffffffffffffffffffffffffffffffffffffffffffffffffffffff03821115611f2857611f27611eae565b5b828201905092915050565b7f457863656564206d617820737570706c79000000000000000000000000000000600082015250565b6000611f696011836119a3565b9150611f7482611f33565b602082019050919050565b60006020820190508181036000830152611f9881611f5c565b9050919050565b7f436c61696d656420616c72656164790000000000000000000000000000000000600082015250565b6000611fd5600f836119a3565b9150611fe082611f9f565b602082019050919050565b6000602082019050818103600083015261200481611fc8565b9050919050565b60006040820190506120206000830185611de3565b61202d6020830184611d02565b9392505050565b7f696e76616c6964207369676e6174757265000000000000000000000000000000600082015250565b600061206a6011836119a3565b915061207582612034565b602082019050919050565b600060208201905081810360008301526120998161205d565b9050919050565b60008160011c9050919050565b6000808291508390505b60018511156120f7578086048111156120d3576120d2611eae565b5b60018516156120e25780820291505b80810290506120f0856120a0565b94506120b7565b94509492505050565b60008261211057600190506121cc565b8161211e57600090506121cc565b8160018114612134576002811461213e5761216d565b60019150506121cc565b60ff8411156121505761214f611eae565b5b8360020a91508482111561216757612166611eae565b5b506121cc565b5060208310610133831016604e8410600b84101617156121a25782820a90508381111561219d5761219c611eae565b5b6121cc565b6121af84848460016120ad565b925090508184048111156121c6576121c5611eae565b5b81810290505b9392505050565b60006121de82611ac5565b91506121e983611ac5565b92506122167fffffffffffffffffffffffffffffffffffffffffffffffffffffffffffffffff8484612100565b905092915050565b600061222982611ac5565b915061223483611ac5565b9250817fffffffffffffffffffffffffffffffffffffffffffffffffffffffffffffffff048311821515161561226d5761226c611eae565b5b828202905092915050565b7f45524332303a207472616e7366657220616d6f756e742065786365656473206160008201527f6c6c6f77616e6365000000000000000000000000000000000000000000000000602082015250565b60006122d46028836119a3565b91506122df82612278565b604082019050919050565b60006020820190508181036000830152612303816122c7565b9050919050565b7f4e487b7100000000000000000000000000000000000000000000000000000000600052601260045260246000fd5b600061234482611ac5565b915061234f83611ac5565b92508261235f5761235e61230a565b5b828204905092915050565b600061237582611ac5565b915061238083611ac5565b92508282101561239357612392611eae565b5b828203905092915050565b7f45524332303a2064656372656173656420616c6c6f77616e63652062656c6f7760008201527f207a65726f000000000000000000000000000000000000000000000000000000602082015250565b60006123fa6025836119a3565b91506124058261239e565b604082019050919050565b60006020820190508181036000830152612429816123ed565b9050919050565b7f45524332303a20617070726f76652066726f6d20746865207a65726f2061646460008201527f7265737300000000000000000000000000000000000000000000000000000000602082015250565b600061248c6024836119a3565b915061249782612430565b604082019050919050565b600060208201905081810360008301526124bb8161247f565b9050919050565b7f45524332303a20617070726f766520746f20746865207a65726f20616464726560008201527f7373000000000000000000000000000000000000000000000000000000000000602082015250565b600061251e6022836119a3565b9150612529826124c2565b604082019050919050565b6000602082019050818103600083015261254d81612511565b9050919050565b600081905092915050565b7f19457468657265756d205369676e6564204d6573736167653a0a000000000000600082015250565b6000612595601a83612554565b91506125a08261255f565b601a82019050919050565b60006125b682611998565b6125c08185612554565b93506125d08185602086016119b4565b80840191505092915050565b600081519050919050565b600081905092915050565b60006125fd826125dc565b61260781856125e7565b93506126178185602086016119b4565b80840191505092915050565b600061262e82612588565b915061263a82856125ab565b915061264682846125f2565b91508190509392505050565b7f45524332303a206d696e7420746f20746865207a65726f206164647265737300600082015250565b6000612688601f836119a3565b915061269382612652565b602082019050919050565b600060208201905081810360008301526126b78161267b565b9050919050565b60007effffffffffffffffffffffffffffffffffffffffffffffffffffffffffffff82169050919050565b60006126f4826126be565b91506126ff836126be565b9250827effffffffffffffffffffffffffffffffffffffffffffffffffffffffffffff0382111561273357612732611eae565b5b828201905092915050565b7f45524332303a207472616e736665722066726f6d20746865207a65726f20616460008201527f6472657373000000000000000000000000000000000000000000000000000000602082015250565b600061279a6025836119a3565b91506127a58261273e565b604082019050919050565b600060208201905081810360008301526127c98161278d565b9050919050565b7f45524332303a207472616e7366657220746f20746865207a65726f206164647260008201527f6573730000000000000000000000000000000000000000000000000000000000602082015250565b600061282c6023836119a3565b9150612837826127d0565b604082019050919050565b6000602082019050818103600083015261285b8161281f565b9050919050565b7f45524332303a207472616e7366657220616d6f756e742065786365656473206260008201527f616c616e63650000000000000000000000000000000000000000000000000000602082015250565b60006128be6026836119a3565b91506128c982612862565b604082019050919050565b600060208201905081810360008301526128ed816128b1565b9050919050565b60006128ff82611ac5565b91507fffffffffffffffffffffffffffffffffffffffffffffffffffffffffffffffff82141561293257612931611eae565b5b600182019050919050565b600061294882611ac5565b915061295383611ac5565b9250826129635761296261230a565b5b828206905092915050565b7f4e487b7100000000000000000000000000000000000000000000000000000000600052603260045260246000fd5b7f4e487b7100000000000000000000000000000000000000000000000000000000600052602160045260246000fd5b7f45434453413a20696e76616c6964207369676e61747572650000000000000000600082015250565b6000612a026018836119a3565b9150612a0d826129cc565b602082019050919050565b60006020820190508181036000830152612a31816129f5565b9050919050565b7f45434453413a20696e76616c6964207369676e6174757265206c656e67746800600082015250565b6000612a6e601f836119a3565b9150612a7982612a38565b602082019050919050565b60006020820190508181036000830152612a9d81612a61565b9050919050565b7f45434453413a20696e76616c6964207369676e6174757265202773272076616c60008201527f7565000000000000000000000000000000000000000000000000000000000000602082015250565b6000612b006022836119a3565b9150612b0b82612aa4565b604082019050919050565b60006020820190508181036000830152612b2f81612af3565b9050919050565b7f45434453413a20696e76616c6964207369676e6174757265202776272076616c60008201527f7565000000000000000000000000000000000000000000000000000000000000602082015250565b6000612b926022836119a3565b9150612b9d82612b36565b604082019050919050565b60006020820190508181036000830152612bc181612b85565b9050919050565b6000819050919050565b612bdb81612bc8565b82525050565b6000608082019050612bf66000830187612bd2565b612c036020830186611db9565b612c106040830185612bd2565b612c1d6060830184612bd2565b9594505050505056fea2646970667358221220dd9e79a013291c3b9100bfb7276e0833e923a4f430c274a1b57ae842350ac74c64736f6c634300080a0033",
  "immutableReferences": {
    "1495": [
      {
        "length": 32,
        "start": 3153
      }
    ],
    "1497": [
      {
        "length": 32,
        "start": 1441
      },
      {
        "length": 32,
        "start": 2256
      }
    ]
  },
  "source": "// SPDX-License-Identifier: MIT\npragma solidity ^0.8.2;\n\nimport \"openzeppelin-solidity/contracts/utils/cryptography/ECDSA.sol\";\nimport \"openzeppelin-solidity/contracts/utils/cryptography/draft-EIP712.sol\";\nimport \"./ERC20.sol\";\n\ncontract GmToken is ERC20, EIP712 {\n    uint256 public constant MAX_SUPPLY = uint248(21000000);\n\n    // for devs\n    uint256 public constant AMOUNT_DEV = MAX_SUPPLY / 10;    \n\n    // for airdrop\n    uint256 public constant AMOUNT_AIRDROP = MAX_SUPPLY - AMOUNT_DEV;\n\n    address public immutable ADDR_DEV;\n    address public immutable cSigner;\n\n    constructor(string memory name, string memory symbol, address _signer) ERC20(name, symbol) EIP712(name, \"1\") {\n        _mint(address(this), AMOUNT_DEV);\n        cSigner = _signer;\n        ADDR_DEV = _signer;\n    }\n\n    function claimTokens(uint256 _amount, bytes memory _sig) public {\n        uint256 total = totalSupply() + _amount;\n        require(total <= MAX_SUPPLY, \"Exceed max supply\");\n        require(minted(msg.sender) == 0, \"Claimed already\");\n        address signer = ECDSA.recover(ECDSA.toEthSignedMessageHash(abi.encode(msg.sender, _amount)), _sig);\n        require(signer == cSigner, \"invalid signature\");\n        _mint(msg.sender, _amount * (10 ** uint256(decimals())));\n    }\n\n    function tokensLeft() public view returns (uint256) {\n        return MAX_SUPPLY - totalSupply();\n    }\n}",
  "sourcePath": "/Users/dannyaziz/Development/gmitoken/blockchain/contracts/GmToken.sol",
  "compiler": {
    "name": "solc",
    "version": "0.8.10+commit.fc410830.Emscripten.clang"
  },
  "schemaVersion": "3.4.4",
  "updatedAt": "2022-01-02T18:09:00.505Z",
  "networkType": "ethereum",
  "devdoc": {
    "kind": "dev",
    "methods": {
      "allowance(address,address)": {
        "details": "See {IERC20-allowance}."
      },
      "approve(address,uint256)": {
        "details": "See {IERC20-approve}. Requirements: - `spender` cannot be the zero address."
      },
      "balanceOf(address)": {
        "details": "See {IERC20-balanceOf}."
      },
      "decimals()": {
        "details": "Returns the number of decimals used to get its user representation. For example, if `decimals` equals `2`, a balance of `505` tokens should be displayed to a user as `5.05` (`505 / 10 ** 2`). Tokens usually opt for a value of 18, imitating the relationship between Ether and Wei. This is the value {ERC20} uses, unless this function is overridden; NOTE: This information is only used for _display_ purposes: it in no way affects any of the arithmetic of the contract, including {IERC20-balanceOf} and {IERC20-transfer}."
      },
      "decreaseAllowance(address,uint256)": {
        "details": "Atomically decreases the allowance granted to `spender` by the caller. This is an alternative to {approve} that can be used as a mitigation for problems described in {IERC20-approve}. Emits an {Approval} event indicating the updated allowance. Requirements: - `spender` cannot be the zero address. - `spender` must have allowance for the caller of at least `subtractedValue`."
      },
      "increaseAllowance(address,uint256)": {
        "details": "Atomically increases the allowance granted to `spender` by the caller. This is an alternative to {approve} that can be used as a mitigation for problems described in {IERC20-approve}. Emits an {Approval} event indicating the updated allowance. Requirements: - `spender` cannot be the zero address."
      },
      "name()": {
        "details": "Returns the name of the token."
      },
      "symbol()": {
        "details": "Returns the symbol of the token, usually a shorter version of the name."
      },
      "totalSupply()": {
        "details": "See {IERC20-totalSupply}."
      },
      "transfer(address,uint256)": {
        "details": "See {IERC20-transfer}. Requirements: - `recipient` cannot be the zero address. - the caller must have a balance of at least `amount`."
      },
      "transferFrom(address,address,uint256)": {
        "details": "See {IERC20-transferFrom}. Emits an {Approval} event indicating the updated allowance. This is not required by the EIP. See the note at the beginning of {ERC20}. Requirements: - `sender` and `recipient` cannot be the zero address. - `sender` must have a balance of at least `amount`. - the caller must have allowance for ``sender``'s tokens of at least `amount`."
      }
    },
    "version": 1
  },
  "userdoc": {
    "kind": "user",
    "methods": {},
    "version": 1
  }
}