{
  "contractName": "GmToken",
  "abi": [
    {
      "inputs": [
        {
          "internalType": "string",
          "name": "name",
          "type": "string"
        },
        {
          "internalType": "string",
          "name": "symbol",
          "type": "string"
        },
        {
          "internalType": "address",
          "name": "_signer",
          "type": "address"
        }
      ],
      "stateMutability": "nonpayable",
      "type": "constructor"
    },
    {
      "anonymous": false,
      "inputs": [
        {
          "indexed": true,
          "internalType": "address",
          "name": "owner",
          "type": "address"
        },
        {
          "indexed": true,
          "internalType": "address",
          "name": "spender",
          "type": "address"
        },
        {
          "indexed": false,
          "internalType": "uint256",
          "name": "value",
          "type": "uint256"
        }
      ],
      "name": "Approval",
      "type": "event"
    },
    {
      "anonymous": false,
      "inputs": [
        {
          "indexed": true,
          "internalType": "address",
          "name": "from",
          "type": "address"
        },
        {
          "indexed": true,
          "internalType": "address",
          "name": "to",
          "type": "address"
        },
        {
          "indexed": false,
          "internalType": "uint256",
          "name": "value",
          "type": "uint256"
        }
      ],
      "name": "Transfer",
      "type": "event"
    },
    {
      "inputs": [],
      "name": "AMOUNT_AIRDROP",
      "outputs": [
        {
          "internalType": "uint256",
          "name": "",
          "type": "uint256"
        }
      ],
      "stateMutability": "view",
      "type": "function",
      "constant": true
    },
    {
      "inputs": [],
      "name": "AMOUNT_DEV",
      "outputs": [
        {
          "internalType": "uint256",
          "name": "",
          "type": "uint256"
        }
      ],
      "stateMutability": "view",
      "type": "function",
      "constant": true
    },
    {
      "inputs": [],
      "name": "MAX_SUPPLY",
      "outputs": [
        {
          "internalType": "uint256",
          "name": "",
          "type": "uint256"
        }
      ],
      "stateMutability": "view",
      "type": "function",
      "constant": true
    },
    {
      "inputs": [
        {
          "internalType": "address",
          "name": "owner",
          "type": "address"
        },
        {
          "internalType": "address",
          "name": "spender",
          "type": "address"
        }
      ],
      "name": "allowance",
      "outputs": [
        {
          "internalType": "uint256",
          "name": "",
          "type": "uint256"
        }
      ],
      "stateMutability": "view",
      "type": "function",
      "constant": true
    },
    {
      "inputs": [
        {
          "internalType": "address",
          "name": "spender",
          "type": "address"
        },
        {
          "internalType": "uint256",
          "name": "amount",
          "type": "uint256"
        }
      ],
      "name": "approve",
      "outputs": [
        {
          "internalType": "bool",
          "name": "",
          "type": "bool"
        }
      ],
      "stateMutability": "nonpayable",
      "type": "function"
    },
    {
      "inputs": [
        {
          "internalType": "address",
          "name": "account",
          "type": "address"
        }
      ],
      "name": "balanceOf",
      "outputs": [
        {
          "internalType": "uint256",
          "name": "",
          "type": "uint256"
        }
      ],
      "stateMutability": "view",
      "type": "function",
      "constant": true
    },
    {
      "inputs": [],
      "name": "cSigner",
      "outputs": [
        {
          "internalType": "address",
          "name": "",
          "type": "address"
        }
      ],
      "stateMutability": "view",
      "type": "function",
      "constant": true
    },
    {
      "inputs": [],
      "name": "decimals",
      "outputs": [
        {
          "internalType": "uint8",
          "name": "",
          "type": "uint8"
        }
      ],
      "stateMutability": "view",
      "type": "function",
      "constant": true
    },
    {
      "inputs": [
        {
          "internalType": "address",
          "name": "spender",
          "type": "address"
        },
        {
          "internalType": "uint256",
          "name": "subtractedValue",
          "type": "uint256"
        }
      ],
      "name": "decreaseAllowance",
      "outputs": [
        {
          "internalType": "bool",
          "name": "",
          "type": "bool"
        }
      ],
      "stateMutability": "nonpayable",
      "type": "function"
    },
    {
      "inputs": [
        {
          "internalType": "address",
          "name": "spender",
          "type": "address"
        },
        {
          "internalType": "uint256",
          "name": "addedValue",
          "type": "uint256"
        }
      ],
      "name": "increaseAllowance",
      "outputs": [
        {
          "internalType": "bool",
          "name": "",
          "type": "bool"
        }
      ],
      "stateMutability": "nonpayable",
      "type": "function"
    },
    {
      "inputs": [
        {
          "internalType": "address",
          "name": "account",
          "type": "address"
        }
      ],
      "name": "minted",
      "outputs": [
        {
          "internalType": "uint256",
          "name": "",
          "type": "uint256"
        }
      ],
      "stateMutability": "view",
      "type": "function",
      "constant": true
    },
    {
      "inputs": [],
      "name": "name",
      "outputs": [
        {
          "internalType": "string",
          "name": "",
          "type": "string"
        }
      ],
      "stateMutability": "view",
      "type": "function",
      "constant": true
    },
    {
      "inputs": [],
      "name": "symbol",
      "outputs": [
        {
          "internalType": "string",
          "name": "",
          "type": "string"
        }
      ],
      "stateMutability": "view",
      "type": "function",
      "constant": true
    },
    {
      "inputs": [],
      "name": "totalSupply",
      "outputs": [
        {
          "internalType": "uint256",
          "name": "",
          "type": "uint256"
        }
      ],
      "stateMutability": "view",
      "type": "function",
      "constant": true
    },
    {
      "inputs": [
        {
          "internalType": "address",
          "name": "recipient",
          "type": "address"
        },
        {
          "internalType": "uint256",
          "name": "amount",
          "type": "uint256"
        }
      ],
      "name": "transfer",
      "outputs": [
        {
          "internalType": "bool",
          "name": "",
          "type": "bool"
        }
      ],
      "stateMutability": "nonpayable",
      "type": "function"
    },
    {
      "inputs": [
        {
          "internalType": "address",
          "name": "sender",
          "type": "address"
        },
        {
          "internalType": "address",
          "name": "recipient",
          "type": "address"
        },
        {
          "internalType": "uint256",
          "name": "amount",
          "type": "uint256"
        }
      ],
      "name": "transferFrom",
      "outputs": [
        {
          "internalType": "bool",
          "name": "",
          "type": "bool"
        }
      ],
      "stateMutability": "nonpayable",
      "type": "function"
    },
    {
      "inputs": [
        {
          "internalType": "uint256",
          "name": "_amount",
          "type": "uint256"
        },
        {
          "internalType": "bytes",
          "name": "_sig",
          "type": "bytes"
        }
      ],
      "name": "claimTokens",
      "outputs": [],
      "stateMutability": "nonpayable",
      "type": "function"
    }
  ],
  "bytecode": "0x60a06040523480156200001157600080fd5b50604051620030483803806200304883398181016040528101906200003791906200035c565b8282816003908051906020019062000051929190620000aa565b5080600490805190602001906200006a929190620000aa565b5050508073ffffffffffffffffffffffffffffffffffffffff1660808173ffffffffffffffffffffffffffffffffffffffff16815250505050506200045b565b828054620000b89062000425565b90600052602060002090601f016020900481019282620000dc576000855562000128565b82601f10620000f757805160ff191683800117855562000128565b8280016001018555821562000128579182015b82811115620001275782518255916020019190600101906200010a565b5b5090506200013791906200013b565b5090565b5b80821115620001565760008160009055506001016200013c565b5090565b6000604051905090565b600080fd5b600080fd5b600080fd5b600080fd5b6000601f19601f8301169050919050565b7f4e487b7100000000000000000000000000000000000000000000000000000000600052604160045260246000fd5b620001c38262000178565b810181811067ffffffffffffffff82111715620001e557620001e462000189565b5b80604052505050565b6000620001fa6200015a565b9050620002088282620001b8565b919050565b600067ffffffffffffffff8211156200022b576200022a62000189565b5b620002368262000178565b9050602081019050919050565b60005b838110156200026357808201518184015260208101905062000246565b8381111562000273576000848401525b50505050565b6000620002906200028a846200020d565b620001ee565b905082815260208101848484011115620002af57620002ae62000173565b5b620002bc84828562000243565b509392505050565b600082601f830112620002dc57620002db6200016e565b5b8151620002ee84826020860162000279565b91505092915050565b600073ffffffffffffffffffffffffffffffffffffffff82169050919050565b60006200032482620002f7565b9050919050565b620003368162000317565b81146200034257600080fd5b50565b60008151905062000356816200032b565b92915050565b60008060006060848603121562000378576200037762000164565b5b600084015167ffffffffffffffff81111562000399576200039862000169565b5b620003a786828701620002c4565b935050602084015167ffffffffffffffff811115620003cb57620003ca62000169565b5b620003d986828701620002c4565b9250506040620003ec8682870162000345565b9150509250925092565b7f4e487b7100000000000000000000000000000000000000000000000000000000600052602260045260246000fd5b600060028204905060018216806200043e57607f821691505b60208210811415620004555762000454620003f6565b5b50919050565b608051612bca6200047e6000396000818161055601526108930152612bca6000f3fe608060405234801561001057600080fd5b506004361061010b5760003560e01c806332cb6b0c116100a257806380ef01601161007157806380ef0160146102d057806395d89b41146102ee578063a457c2d71461030c578063a9059cbb1461033c578063dd62ed3e1461036c5761010b565b806332cb6b0c1461023457806339509351146102525780635760cc5d1461028257806370a08231146102a05761010b565b80631e7269c5116100de5780631e7269c51461019857806323b872dd146101c857806323d04a10146101f8578063313ce567146102165761010b565b806306fdde0314610110578063095ea7b31461012e57806314d8bbf11461015e57806318160ddd1461017a575b600080fd5b61011861039c565b604051610125919061199f565b60405180910390f35b61014860048036038101906101439190611a69565b61042e565b6040516101559190611ac4565b60405180910390f35b61017860048036038101906101739190611c14565b61044c565b005b610182610613565b60405161018f9190611c7f565b60405180910390f35b6101b260048036038101906101ad9190611c9a565b61061d565b6040516101bf9190611c7f565b60405180910390f35b6101e260048036038101906101dd9190611cc7565b610678565b6040516101ef9190611ac4565b60405180910390f35b610200610770565b60405161020d9190611c7f565b60405180910390f35b61021e6107ac565b60405161022b9190611d36565b60405180910390f35b61023c6107b5565b6040516102499190611c7f565b60405180910390f35b61026c60048036038101906102679190611a69565b6107e5565b6040516102799190611ac4565b60405180910390f35b61028a610891565b6040516102979190611d60565b60405180910390f35b6102ba60048036038101906102b59190611c9a565b6108b5565b6040516102c79190611c7f565b60405180910390f35b6102d861094c565b6040516102e59190611c7f565b60405180910390f35b6102f66109bf565b604051610303919061199f565b60405180910390f35b61032660048036038101906103219190611a69565b610a51565b6040516103339190611ac4565b60405180910390f35b61035660048036038101906103519190611a69565b610b3c565b6040516103639190611ac4565b60405180910390f35b61038660048036038101906103819190611d7b565b610b5a565b6040516103939190611c7f565b60405180910390f35b6060600380546103ab90611dea565b80601f01602080910402602001604051908101604052809291908181526020018280546103d790611dea565b80156104245780601f106103f957610100808354040283529160200191610424565b820191906000526020600020905b81548152906001019060200180831161040757829003601f168201915b5050505050905090565b600061044261043b610be1565b8484610be9565b6001905092915050565b600082610457610613565b6104619190611e4b565b90506a115eec47f6cf7e350000007effffffffffffffffffffffffffffffffffffffffffffffffffffffffffffff168111156104d2576040517f08c379a00000000000000000000000000000000000000000000000000000000081526004016104c990611eed565b60405180910390fd5b60006104dd3361061d565b1461051d576040517f08c379a000000000000000000000000000000000000000000000000000000000815260040161051490611f59565b60405180910390fd5b600061055261054c3386604051602001610538929190611f79565b604051602081830303815290604052610db4565b84610def565b90507f000000000000000000000000000000000000000000000000000000000000000073ffffffffffffffffffffffffffffffffffffffff168173ffffffffffffffffffffffffffffffffffffffff16146105e2576040517f08c379a00000000000000000000000000000000000000000000000000000000081526004016105d990611fee565b60405180910390fd5b61060d336105ee6107ac565b60ff16600a6105fd9190612141565b86610608919061218c565b610e16565b50505050565b6000600254905090565b60008060008373ffffffffffffffffffffffffffffffffffffffff1673ffffffffffffffffffffffffffffffffffffffff16815260200190815260200160002060000160009054906101000a900460ff1660ff169050919050565b600061068584848461104b565b6000600160008673ffffffffffffffffffffffffffffffffffffffff1673ffffffffffffffffffffffffffffffffffffffff16815260200190815260200160002060006106d0610be1565b73ffffffffffffffffffffffffffffffffffffffff1673ffffffffffffffffffffffffffffffffffffffff16815260200190815260200160002054905082811015610750576040517f08c379a000000000000000000000000000000000000000000000000000000000815260040161074790612258565b60405180910390fd5b6107648561075c610be1565b858403610be9565b60019150509392505050565b600a6a115eec47f6cf7e350000007effffffffffffffffffffffffffffffffffffffffffffffffffffffffffffff166107a991906122a7565b81565b60006012905090565b6a115eec47f6cf7e350000007effffffffffffffffffffffffffffffffffffffffffffffffffffffffffffff1681565b60006108876107f2610be1565b848460016000610800610be1565b73ffffffffffffffffffffffffffffffffffffffff1673ffffffffffffffffffffffffffffffffffffffff16815260200190815260200160002060008873ffffffffffffffffffffffffffffffffffffffff1673ffffffffffffffffffffffffffffffffffffffff168152602001908152602001600020546108829190611e4b565b610be9565b6001905092915050565b7f000000000000000000000000000000000000000000000000000000000000000081565b60008060008373ffffffffffffffffffffffffffffffffffffffff1673ffffffffffffffffffffffffffffffffffffffff16815260200190815260200160002060000160019054906101000a90047effffffffffffffffffffffffffffffffffffffffffffffffffffffffffffff167effffffffffffffffffffffffffffffffffffffffffffffffffffffffffffff169050919050565b600a6a115eec47f6cf7e350000007effffffffffffffffffffffffffffffffffffffffffffffffffffffffffffff1661098591906122a7565b6a115eec47f6cf7e350000007effffffffffffffffffffffffffffffffffffffffffffffffffffffffffffff166109bc91906122d8565b81565b6060600480546109ce90611dea565b80601f01602080910402602001604051908101604052809291908181526020018280546109fa90611dea565b8015610a475780601f10610a1c57610100808354040283529160200191610a47565b820191906000526020600020905b815481529060010190602001808311610a2a57829003601f168201915b5050505050905090565b60008060016000610a60610be1565b73ffffffffffffffffffffffffffffffffffffffff1673ffffffffffffffffffffffffffffffffffffffff16815260200190815260200160002060008573ffffffffffffffffffffffffffffffffffffffff1673ffffffffffffffffffffffffffffffffffffffff16815260200190815260200160002054905082811015610b1d576040517f08c379a0000000000000000000000000000000000000000000000000000000008152600401610b149061237e565b60405180910390fd5b610b31610b28610be1565b85858403610be9565b600191505092915050565b6000610b50610b49610be1565b848461104b565b6001905092915050565b6000600160008473ffffffffffffffffffffffffffffffffffffffff1673ffffffffffffffffffffffffffffffffffffffff16815260200190815260200160002060008373ffffffffffffffffffffffffffffffffffffffff1673ffffffffffffffffffffffffffffffffffffffff16815260200190815260200160002054905092915050565b600033905090565b600073ffffffffffffffffffffffffffffffffffffffff168373ffffffffffffffffffffffffffffffffffffffff161415610c59576040517f08c379a0000000000000000000000000000000000000000000000000000000008152600401610c5090612410565b60405180910390fd5b600073ffffffffffffffffffffffffffffffffffffffff168273ffffffffffffffffffffffffffffffffffffffff161415610cc9576040517f08c379a0000000000000000000000000000000000000000000000000000000008152600401610cc0906124a2565b60405180910390fd5b80600160008573ffffffffffffffffffffffffffffffffffffffff1673ffffffffffffffffffffffffffffffffffffffff16815260200190815260200160002060008473ffffffffffffffffffffffffffffffffffffffff1673ffffffffffffffffffffffffffffffffffffffff168152602001908152602001600020819055508173ffffffffffffffffffffffffffffffffffffffff168373ffffffffffffffffffffffffffffffffffffffff167f8c5be1e5ebec7d5bd14f71427d1e84f3dd0314c0f7b2291e5b200ac8c7c3b92583604051610da79190611c7f565b60405180910390a3505050565b6000610dc082516113e8565b82604051602001610dd2929190612591565b604051602081830303815290604052805190602001209050919050565b6000806000610dfe8585611549565b91509150610e0b816115cc565b819250505092915050565b600073ffffffffffffffffffffffffffffffffffffffff168273ffffffffffffffffffffffffffffffffffffffff161415610e86576040517f08c379a0000000000000000000000000000000000000000000000000000000008152600401610e7d9061260c565b60405180910390fd5b610e92600083836117a1565b8060026000828254610ea49190611e4b565b92505081905550806000808473ffffffffffffffffffffffffffffffffffffffff1673ffffffffffffffffffffffffffffffffffffffff16815260200190815260200160002060000160018282829054906101000a90047effffffffffffffffffffffffffffffffffffffffffffffffffffffffffffff16610f269190612657565b92506101000a8154817effffffffffffffffffffffffffffffffffffffffffffffffffffffffffffff02191690837effffffffffffffffffffffffffffffffffffffffffffffffffffffffffffff16021790555060016000808473ffffffffffffffffffffffffffffffffffffffff1673ffffffffffffffffffffffffffffffffffffffff16815260200190815260200160002060000160006101000a81548160ff021916908360ff1602179055508173ffffffffffffffffffffffffffffffffffffffff16600073ffffffffffffffffffffffffffffffffffffffff167fddf252ad1be2c89b69c2b068fc378daa952ba7f163c4a11628f55a4df523b3ef836040516110339190611c7f565b60405180910390a3611047600083836117a6565b5050565b600073ffffffffffffffffffffffffffffffffffffffff168373ffffffffffffffffffffffffffffffffffffffff1614156110bb576040517f08c379a00000000000000000000000000000000000000000000000000000000081526004016110b29061271e565b60405180910390fd5b600073ffffffffffffffffffffffffffffffffffffffff168273ffffffffffffffffffffffffffffffffffffffff16141561112b576040517f08c379a0000000000000000000000000000000000000000000000000000000008152600401611122906127b0565b60405180910390fd5b6111368383836117a1565b60008060008573ffffffffffffffffffffffffffffffffffffffff1673ffffffffffffffffffffffffffffffffffffffff16815260200190815260200160002060000160019054906101000a90047effffffffffffffffffffffffffffffffffffffffffffffffffffffffffffff167effffffffffffffffffffffffffffffffffffffffffffffffffffffffffffff1690508181101561120b576040517f08c379a000000000000000000000000000000000000000000000000000000000815260040161120290612842565b60405180910390fd5b8181036000808673ffffffffffffffffffffffffffffffffffffffff1673ffffffffffffffffffffffffffffffffffffffff16815260200190815260200160002060000160016101000a8154817effffffffffffffffffffffffffffffffffffffffffffffffffffffffffffff02191690837effffffffffffffffffffffffffffffffffffffffffffffffffffffffffffff160217905550816000808573ffffffffffffffffffffffffffffffffffffffff1673ffffffffffffffffffffffffffffffffffffffff16815260200190815260200160002060000160018282829054906101000a90047effffffffffffffffffffffffffffffffffffffffffffffffffffffffffffff1661131e9190612657565b92506101000a8154817effffffffffffffffffffffffffffffffffffffffffffffffffffffffffffff02191690837effffffffffffffffffffffffffffffffffffffffffffffffffffffffffffff1602179055508273ffffffffffffffffffffffffffffffffffffffff168473ffffffffffffffffffffffffffffffffffffffff167fddf252ad1be2c89b69c2b068fc378daa952ba7f163c4a11628f55a4df523b3ef846040516113cf9190611c7f565b60405180910390a36113e28484846117a6565b50505050565b60606000821415611430576040518060400160405280600181526020017f30000000000000000000000000000000000000000000000000000000000000008152509050611544565b600082905060005b6000821461146257808061144b90612862565b915050600a8261145b91906122a7565b9150611438565b60008167ffffffffffffffff81111561147e5761147d611ae9565b5b6040519080825280601f01601f1916602001820160405280156114b05781602001600182028036833780820191505090505b5090505b6000851461153d576001826114c991906122d8565b9150600a856114d891906128ab565b60306114e49190611e4b565b60f81b8183815181106114fa576114f96128dc565b5b60200101907effffffffffffffffffffffffffffffffffffffffffffffffffffffffffffff1916908160001a905350600a8561153691906122a7565b94506114b4565b8093505050505b919050565b60008060418351141561158b5760008060006020860151925060408601519150606086015160001a905061157f878285856117ab565b945094505050506115c5565b6040835114156115bc5760008060208501519150604085015190506115b18683836118b8565b9350935050506115c5565b60006002915091505b9250929050565b600060048111156115e0576115df61290b565b5b8160048111156115f3576115f261290b565b5b14156115fe5761179e565b600160048111156116125761161161290b565b5b8160048111156116255761162461290b565b5b1415611666576040517f08c379a000000000000000000000000000000000000000000000000000000000815260040161165d90612986565b60405180910390fd5b6002600481111561167a5761167961290b565b5b81600481111561168d5761168c61290b565b5b14156116ce576040517f08c379a00000000000000000000000000000000000000000000000000000000081526004016116c5906129f2565b60405180910390fd5b600360048111156116e2576116e161290b565b5b8160048111156116f5576116f461290b565b5b1415611736576040517f08c379a000000000000000000000000000000000000000000000000000000000815260040161172d90612a84565b60405180910390fd5b6004808111156117495761174861290b565b5b81600481111561175c5761175b61290b565b5b141561179d576040517f08c379a000000000000000000000000000000000000000000000000000000000815260040161179490612b16565b60405180910390fd5b5b50565b505050565b505050565b6000807f7fffffffffffffffffffffffffffffff5d576e7357a4501ddfe92f46681b20a08360001c11156117e65760006003915091506118af565b601b8560ff16141580156117fe5750601c8560ff1614155b156118105760006004915091506118af565b6000600187878787604051600081526020016040526040516118359493929190612b4f565b6020604051602081039080840390855afa158015611857573d6000803e3d6000fd5b505050602060405103519050600073ffffffffffffffffffffffffffffffffffffffff168173ffffffffffffffffffffffffffffffffffffffff1614156118a6576000600192509250506118af565b80600092509250505b94509492505050565b6000806000807f7fffffffffffffffffffffffffffffffffffffffffffffffffffffffffffffff85169150601b8560ff1c0190506118f8878288856117ab565b935093505050935093915050565b600081519050919050565b600082825260208201905092915050565b60005b83811015611940578082015181840152602081019050611925565b8381111561194f576000848401525b50505050565b6000601f19601f8301169050919050565b600061197182611906565b61197b8185611911565b935061198b818560208601611922565b61199481611955565b840191505092915050565b600060208201905081810360008301526119b98184611966565b905092915050565b6000604051905090565b600080fd5b600080fd5b600073ffffffffffffffffffffffffffffffffffffffff82169050919050565b6000611a00826119d5565b9050919050565b611a10816119f5565b8114611a1b57600080fd5b50565b600081359050611a2d81611a07565b92915050565b6000819050919050565b611a4681611a33565b8114611a5157600080fd5b50565b600081359050611a6381611a3d565b92915050565b60008060408385031215611a8057611a7f6119cb565b5b6000611a8e85828601611a1e565b9250506020611a9f85828601611a54565b9150509250929050565b60008115159050919050565b611abe81611aa9565b82525050565b6000602082019050611ad96000830184611ab5565b92915050565b600080fd5b600080fd5b7f4e487b7100000000000000000000000000000000000000000000000000000000600052604160045260246000fd5b611b2182611955565b810181811067ffffffffffffffff82111715611b4057611b3f611ae9565b5b80604052505050565b6000611b536119c1565b9050611b5f8282611b18565b919050565b600067ffffffffffffffff821115611b7f57611b7e611ae9565b5b611b8882611955565b9050602081019050919050565b82818337600083830152505050565b6000611bb7611bb284611b64565b611b49565b905082815260208101848484011115611bd357611bd2611ae4565b5b611bde848285611b95565b509392505050565b600082601f830112611bfb57611bfa611adf565b5b8135611c0b848260208601611ba4565b91505092915050565b60008060408385031215611c2b57611c2a6119cb565b5b6000611c3985828601611a54565b925050602083013567ffffffffffffffff811115611c5a57611c596119d0565b5b611c6685828601611be6565b9150509250929050565b611c7981611a33565b82525050565b6000602082019050611c946000830184611c70565b92915050565b600060208284031215611cb057611caf6119cb565b5b6000611cbe84828501611a1e565b91505092915050565b600080600060608486031215611ce057611cdf6119cb565b5b6000611cee86828701611a1e565b9350506020611cff86828701611a1e565b9250506040611d1086828701611a54565b9150509250925092565b600060ff82169050919050565b611d3081611d1a565b82525050565b6000602082019050611d4b6000830184611d27565b92915050565b611d5a816119f5565b82525050565b6000602082019050611d756000830184611d51565b92915050565b60008060408385031215611d9257611d916119cb565b5b6000611da085828601611a1e565b9250506020611db185828601611a1e565b9150509250929050565b7f4e487b7100000000000000000000000000000000000000000000000000000000600052602260045260246000fd5b60006002820490506001821680611e0257607f821691505b60208210811415611e1657611e15611dbb565b5b50919050565b7f4e487b7100000000000000000000000000000000000000000000000000000000600052601160045260246000fd5b6000611e5682611a33565b9150611e6183611a33565b9250827fffffffffffffffffffffffffffffffffffffffffffffffffffffffffffffffff03821115611e9657611e95611e1c565b5b828201905092915050565b7f457863656564206d617820737570706c79000000000000000000000000000000600082015250565b6000611ed7601183611911565b9150611ee282611ea1565b602082019050919050565b60006020820190508181036000830152611f0681611eca565b9050919050565b7f436c61696d656420616c72656164790000000000000000000000000000000000600082015250565b6000611f43600f83611911565b9150611f4e82611f0d565b602082019050919050565b60006020820190508181036000830152611f7281611f36565b9050919050565b6000604082019050611f8e6000830185611d51565b611f9b6020830184611c70565b9392505050565b7f696e76616c6964207369676e6174757265000000000000000000000000000000600082015250565b6000611fd8601183611911565b9150611fe382611fa2565b602082019050919050565b6000602082019050818103600083015261200781611fcb565b9050919050565b60008160011c9050919050565b6000808291508390505b60018511156120655780860481111561204157612040611e1c565b5b60018516156120505780820291505b808102905061205e8561200e565b9450612025565b94509492505050565b60008261207e576001905061213a565b8161208c576000905061213a565b81600181146120a257600281146120ac576120db565b600191505061213a565b60ff8411156120be576120bd611e1c565b5b8360020a9150848211156120d5576120d4611e1c565b5b5061213a565b5060208310610133831016604e8410600b84101617156121105782820a90508381111561210b5761210a611e1c565b5b61213a565b61211d848484600161201b565b9250905081840481111561213457612133611e1c565b5b81810290505b9392505050565b600061214c82611a33565b915061215783611a33565b92506121847fffffffffffffffffffffffffffffffffffffffffffffffffffffffffffffffff848461206e565b905092915050565b600061219782611a33565b91506121a283611a33565b9250817fffffffffffffffffffffffffffffffffffffffffffffffffffffffffffffffff04831182151516156121db576121da611e1c565b5b828202905092915050565b7f45524332303a207472616e7366657220616d6f756e742065786365656473206160008201527f6c6c6f77616e6365000000000000000000000000000000000000000000000000602082015250565b6000612242602883611911565b915061224d826121e6565b604082019050919050565b6000602082019050818103600083015261227181612235565b9050919050565b7f4e487b7100000000000000000000000000000000000000000000000000000000600052601260045260246000fd5b60006122b282611a33565b91506122bd83611a33565b9250826122cd576122cc612278565b5b828204905092915050565b60006122e382611a33565b91506122ee83611a33565b92508282101561230157612300611e1c565b5b828203905092915050565b7f45524332303a2064656372656173656420616c6c6f77616e63652062656c6f7760008201527f207a65726f000000000000000000000000000000000000000000000000000000602082015250565b6000612368602583611911565b91506123738261230c565b604082019050919050565b600060208201905081810360008301526123978161235b565b9050919050565b7f45524332303a20617070726f76652066726f6d20746865207a65726f2061646460008201527f7265737300000000000000000000000000000000000000000000000000000000602082015250565b60006123fa602483611911565b91506124058261239e565b604082019050919050565b60006020820190508181036000830152612429816123ed565b9050919050565b7f45524332303a20617070726f766520746f20746865207a65726f20616464726560008201527f7373000000000000000000000000000000000000000000000000000000000000602082015250565b600061248c602283611911565b915061249782612430565b604082019050919050565b600060208201905081810360008301526124bb8161247f565b9050919050565b600081905092915050565b7f19457468657265756d205369676e6564204d6573736167653a0a000000000000600082015250565b6000612503601a836124c2565b915061250e826124cd565b601a82019050919050565b600061252482611906565b61252e81856124c2565b935061253e818560208601611922565b80840191505092915050565b600081519050919050565b600081905092915050565b600061256b8261254a565b6125758185612555565b9350612585818560208601611922565b80840191505092915050565b600061259c826124f6565b91506125a88285612519565b91506125b48284612560565b91508190509392505050565b7f45524332303a206d696e7420746f20746865207a65726f206164647265737300600082015250565b60006125f6601f83611911565b9150612601826125c0565b602082019050919050565b60006020820190508181036000830152612625816125e9565b9050919050565b60007effffffffffffffffffffffffffffffffffffffffffffffffffffffffffffff82169050919050565b60006126628261262c565b915061266d8361262c565b9250827effffffffffffffffffffffffffffffffffffffffffffffffffffffffffffff038211156126a1576126a0611e1c565b5b828201905092915050565b7f45524332303a207472616e736665722066726f6d20746865207a65726f20616460008201527f6472657373000000000000000000000000000000000000000000000000000000602082015250565b6000612708602583611911565b9150612713826126ac565b604082019050919050565b60006020820190508181036000830152612737816126fb565b9050919050565b7f45524332303a207472616e7366657220746f20746865207a65726f206164647260008201527f6573730000000000000000000000000000000000000000000000000000000000602082015250565b600061279a602383611911565b91506127a58261273e565b604082019050919050565b600060208201905081810360008301526127c98161278d565b9050919050565b7f45524332303a207472616e7366657220616d6f756e742065786365656473206260008201527f616c616e63650000000000000000000000000000000000000000000000000000602082015250565b600061282c602683611911565b9150612837826127d0565b604082019050919050565b6000602082019050818103600083015261285b8161281f565b9050919050565b600061286d82611a33565b91507fffffffffffffffffffffffffffffffffffffffffffffffffffffffffffffffff8214156128a05761289f611e1c565b5b600182019050919050565b60006128b682611a33565b91506128c183611a33565b9250826128d1576128d0612278565b5b828206905092915050565b7f4e487b7100000000000000000000000000000000000000000000000000000000600052603260045260246000fd5b7f4e487b7100000000000000000000000000000000000000000000000000000000600052602160045260246000fd5b7f45434453413a20696e76616c6964207369676e61747572650000000000000000600082015250565b6000612970601883611911565b915061297b8261293a565b602082019050919050565b6000602082019050818103600083015261299f81612963565b9050919050565b7f45434453413a20696e76616c6964207369676e6174757265206c656e67746800600082015250565b60006129dc601f83611911565b91506129e7826129a6565b602082019050919050565b60006020820190508181036000830152612a0b816129cf565b9050919050565b7f45434453413a20696e76616c6964207369676e6174757265202773272076616c60008201527f7565000000000000000000000000000000000000000000000000000000000000602082015250565b6000612a6e602283611911565b9150612a7982612a12565b604082019050919050565b60006020820190508181036000830152612a9d81612a61565b9050919050565b7f45434453413a20696e76616c6964207369676e6174757265202776272076616c60008201527f7565000000000000000000000000000000000000000000000000000000000000602082015250565b6000612b00602283611911565b9150612b0b82612aa4565b604082019050919050565b60006020820190508181036000830152612b2f81612af3565b9050919050565b6000819050919050565b612b4981612b36565b82525050565b6000608082019050612b646000830187612b40565b612b716020830186611d27565b612b7e6040830185612b40565b612b8b6060830184612b40565b9594505050505056fea2646970667358221220abf739345554a440ccb053718354ed86305d37e9bec696817da26e0c78c1cdfd64736f6c634300080a0033",
  "immutableReferences": {
    "1343": [
      {
        "length": 32,
        "start": 1366
      },
      {
        "length": 32,
        "start": 2195
      }
    ]
  },
  "source": "// SPDX-License-Identifier: MIT\npragma solidity ^0.8.2;\n\nimport \"openzeppelin-solidity/contracts/utils/cryptography/ECDSA.sol\";\nimport \"./ERC20.sol\";\n\ncontract GmToken is ERC20 {\n    uint256 public constant MAX_SUPPLY = uint248(21000000 * (10 ** 18));\n    uint256 public constant AMOUNT_DEV = MAX_SUPPLY / 10;    \n    uint256 public constant AMOUNT_AIRDROP = MAX_SUPPLY - AMOUNT_DEV;\n\n    address public immutable cSigner;\n\n    constructor(string memory name, string memory symbol, address _signer) ERC20(name, symbol) {\n        // _mint(_signer, AMOUNT_DEV);\n        cSigner = _signer;\n    }\n\n    function claimTokens(uint256 _amount, bytes memory _sig) public {\n        uint256 total = totalSupply() + _amount;\n        require(total <= MAX_SUPPLY, \"Exceed max supply\");\n        require(minted(msg.sender) == 0, \"Claimed already\");\n        address signer = ECDSA.recover(ECDSA.toEthSignedMessageHash(abi.encode(msg.sender, _amount)), _sig);\n        require(signer == cSigner, \"invalid signature\");\n        _mint(msg.sender, _amount * (10 ** uint256(decimals())));\n    }\n}",
  "sourcePath": "/Users/dannyaziz/Development/gmitoken/blockchain/contracts/GmToken.sol",
  "compiler": {
    "name": "solc",
    "version": "0.8.10+commit.fc410830.Emscripten.clang"
  },
  "schemaVersion": "3.4.4",
  "updatedAt": "2022-01-02T22:45:11.858Z",
  "networkType": "ethereum",
  "devdoc": {
    "kind": "dev",
    "methods": {
      "allowance(address,address)": {
        "details": "See {IERC20-allowance}."
      },
      "approve(address,uint256)": {
        "details": "See {IERC20-approve}. Requirements: - `spender` cannot be the zero address."
      },
      "balanceOf(address)": {
        "details": "See {IERC20-balanceOf}."
      },
      "decimals()": {
        "details": "Returns the number of decimals used to get its user representation. For example, if `decimals` equals `2`, a balance of `505` tokens should be displayed to a user as `5.05` (`505 / 10 ** 2`). Tokens usually opt for a value of 18, imitating the relationship between Ether and Wei. This is the value {ERC20} uses, unless this function is overridden; NOTE: This information is only used for _display_ purposes: it in no way affects any of the arithmetic of the contract, including {IERC20-balanceOf} and {IERC20-transfer}."
      },
      "decreaseAllowance(address,uint256)": {
        "details": "Atomically decreases the allowance granted to `spender` by the caller. This is an alternative to {approve} that can be used as a mitigation for problems described in {IERC20-approve}. Emits an {Approval} event indicating the updated allowance. Requirements: - `spender` cannot be the zero address. - `spender` must have allowance for the caller of at least `subtractedValue`."
      },
      "increaseAllowance(address,uint256)": {
        "details": "Atomically increases the allowance granted to `spender` by the caller. This is an alternative to {approve} that can be used as a mitigation for problems described in {IERC20-approve}. Emits an {Approval} event indicating the updated allowance. Requirements: - `spender` cannot be the zero address."
      },
      "name()": {
        "details": "Returns the name of the token."
      },
      "symbol()": {
        "details": "Returns the symbol of the token, usually a shorter version of the name."
      },
      "totalSupply()": {
        "details": "See {IERC20-totalSupply}."
      },
      "transfer(address,uint256)": {
        "details": "See {IERC20-transfer}. Requirements: - `recipient` cannot be the zero address. - the caller must have a balance of at least `amount`."
      },
      "transferFrom(address,address,uint256)": {
        "details": "See {IERC20-transferFrom}. Emits an {Approval} event indicating the updated allowance. This is not required by the EIP. See the note at the beginning of {ERC20}. Requirements: - `sender` and `recipient` cannot be the zero address. - `sender` must have a balance of at least `amount`. - the caller must have allowance for ``sender``'s tokens of at least `amount`."
      }
    },
    "version": 1
  },
  "userdoc": {
    "kind": "user",
    "methods": {},
    "version": 1
  }
}